{
  "contractName": "daTicketApp",
  "abi": [
    {
      "constant": true,
      "inputs": [],
      "name": "endTime",
      "outputs": [
        {
          "name": "",
          "type": "uint256"
        }
      ],
      "payable": false,
      "stateMutability": "view",
      "type": "function"
    },
    {
      "constant": true,
      "inputs": [],
      "name": "ticketTypeCount",
      "outputs": [
        {
          "name": "",
          "type": "uint256"
        }
      ],
      "payable": false,
      "stateMutability": "view",
      "type": "function"
    },
    {
      "constant": true,
      "inputs": [],
      "name": "eventDate",
      "outputs": [
        {
          "name": "",
          "type": "uint256"
        }
      ],
      "payable": false,
      "stateMutability": "view",
      "type": "function"
    },
    {
      "constant": true,
      "inputs": [
        {
          "name": "",
          "type": "uint256"
        }
      ],
      "name": "WhoOwnsThis",
      "outputs": [
        {
          "name": "",
          "type": "address"
        }
      ],
      "payable": false,
      "stateMutability": "view",
      "type": "function"
    },
    {
      "constant": true,
      "inputs": [
        {
          "name": "",
          "type": "uint256"
        }
      ],
      "name": "tickets",
      "outputs": [
        {
          "name": "ticketType",
          "type": "uint256"
        },
        {
          "name": "TicketName",
          "type": "string"
        },
        {
          "name": "maxAmount",
          "type": "uint256"
        },
        {
          "name": "TicketCost",
          "type": "uint256"
        },
        {
          "name": "TicketsSold",
          "type": "uint256"
        }
      ],
      "payable": false,
      "stateMutability": "view",
      "type": "function"
    },
    {
      "constant": true,
      "inputs": [],
      "name": "startTime",
      "outputs": [
        {
          "name": "",
          "type": "uint256"
        }
      ],
      "payable": false,
      "stateMutability": "view",
      "type": "function"
    },
    {
      "constant": true,
      "inputs": [],
      "name": "eventName",
      "outputs": [
        {
          "name": "",
          "type": "string"
        }
      ],
      "payable": false,
      "stateMutability": "view",
      "type": "function"
    },
    {
      "constant": true,
      "inputs": [],
      "name": "owner",
      "outputs": [
        {
          "name": "",
          "type": "address"
        }
      ],
      "payable": false,
      "stateMutability": "view",
      "type": "function"
    },
    {
      "constant": true,
      "inputs": [
        {
          "name": "",
          "type": "address"
        }
      ],
      "name": "totalTicketsOwned",
      "outputs": [
        {
          "name": "",
          "type": "uint256"
        }
      ],
      "payable": false,
      "stateMutability": "view",
      "type": "function"
    },
    {
      "constant": true,
      "inputs": [],
      "name": "GlobalTicketCount",
      "outputs": [
        {
          "name": "",
          "type": "uint256"
        }
      ],
      "payable": false,
      "stateMutability": "view",
      "type": "function"
    },
    {
      "inputs": [
        {
          "name": "own",
          "type": "address"
        }
      ],
      "payable": true,
      "stateMutability": "payable",
      "type": "constructor"
    },
    {
      "constant": false,
      "inputs": [
        {
          "name": "name",
          "type": "string"
        },
        {
          "name": "max",
          "type": "uint256"
        },
        {
          "name": "cost",
          "type": "uint256"
        }
      ],
      "name": "checkBeforeAddTicket",
      "outputs": [],
      "payable": false,
      "stateMutability": "nonpayable",
      "type": "function"
    },
    {
      "constant": false,
      "inputs": [
        {
          "name": "TicketType",
          "type": "uint256"
        },
        {
          "name": "quantity",
          "type": "uint256"
        }
      ],
      "name": "BuyTicket",
      "outputs": [],
      "payable": true,
      "stateMutability": "payable",
      "type": "function"
    }
  ],
  "bytecode": "0x6080604052604051602080610c688339810180604052602081101561002357600080fd5b810190808051906020019092919050505080600460006101000a81548173ffffffffffffffffffffffffffffffffffffffff021916908373ffffffffffffffffffffffffffffffffffffffff16021790555050610be3806100856000396000f3fe6080604052600436106100ba576000357c0100000000000000000000000000000000000000000000000000000000900463ffffffff1680633197cbb6146100bf5780633aeb2b53146100ea5780634bfbe5df146101155780634f94deb31461014057806350b44712146101bb57806365f4ee651461028b57806378e97925146103675780638043c9c0146103925780638da5cb5b14610422578063a546295714610479578063a8445a1e146104de578063aebd45f614610516575b600080fd5b3480156100cb57600080fd5b506100d4610541565b6040518082815260200191505060405180910390f35b3480156100f657600080fd5b506100ff610547565b6040518082815260200191505060405180910390f35b34801561012157600080fd5b5061012a61054d565b6040518082815260200191505060405180910390f35b34801561014c57600080fd5b506101796004803603602081101561016357600080fd5b8101908080359060200190929190505050610553565b604051808273ffffffffffffffffffffffffffffffffffffffff1673ffffffffffffffffffffffffffffffffffffffff16815260200191505060405180910390f35b3480156101c757600080fd5b506101f4600480360360208110156101de57600080fd5b8101908080359060200190929190505050610586565b6040518086815260200180602001858152602001848152602001838152602001828103825286818151815260200191508051906020019080838360005b8381101561024c578082015181840152602081019050610231565b50505050905090810190601f1680156102795780820380516001836020036101000a031916815260200191505b50965050505050505060405180910390f35b34801561029757600080fd5b50610365600480360360608110156102ae57600080fd5b81019080803590602001906401000000008111156102cb57600080fd5b8201836020820111156102dd57600080fd5b803590602001918460018302840111640100000000831117156102ff57600080fd5b91908080601f016020809104026020016040519081016040528093929190818152602001838380828437600081840152601f19601f8201169050808301925050505050505091929192908035906020019092919080359060200190929190505050610654565b005b34801561037357600080fd5b5061037c6106c0565b6040518082815260200191505060405180910390f35b34801561039e57600080fd5b506103a76106c6565b6040518080602001828103825283818151815260200191508051906020019080838360005b838110156103e75780820151818401526020810190506103cc565b50505050905090810190601f1680156104145780820380516001836020036101000a031916815260200191505b509250505060405180910390f35b34801561042e57600080fd5b50610437610764565b604051808273ffffffffffffffffffffffffffffffffffffffff1673ffffffffffffffffffffffffffffffffffffffff16815260200191505060405180910390f35b34801561048557600080fd5b506104c86004803603602081101561049c57600080fd5b81019080803573ffffffffffffffffffffffffffffffffffffffff16906020019092919050505061078a565b6040518082815260200191505060405180910390f35b610514600480360360408110156104f457600080fd5b8101908080359060200190929190803590602001909291905050506107a2565b005b34801561052257600080fd5b5061052b610a58565b6040518082815260200191505060405180910390f35b60035481565b60055481565b60015481565b60096020528060005260406000206000915054906101000a900473ffffffffffffffffffffffffffffffffffffffff1681565b6007602052806000526040600020600091509050806000015490806001018054600181600116156101000203166002900480601f0160208091040260200160405190810160405280929190818152602001828054600181600116156101000203166002900480156106385780601f1061060d57610100808354040283529160200191610638565b820191906000526020600020905b81548152906001019060200180831161061b57829003601f168201915b5050505050908060020154908060030154908060040154905085565b600460009054906101000a900473ffffffffffffffffffffffffffffffffffffffff1673ffffffffffffffffffffffffffffffffffffffff163373ffffffffffffffffffffffffffffffffffffffff161415156106b057600080fd5b6106bb838383610a5e565b505050565b60025481565b60008054600181600116156101000203166002900480601f01602080910402602001604051908101604052809291908181526020018280546001816001161561010002031660029004801561075c5780601f106107315761010080835404028352916020019161075c565b820191906000526020600020905b81548152906001019060200180831161073f57829003601f168201915b505050505081565b600460009054906101000a900473ffffffffffffffffffffffffffffffffffffffff1681565b60086020528060005260406000206000915090505481565b6000821180156107b457506005548211155b15156107bf57600080fd5b600581600860003373ffffffffffffffffffffffffffffffffffffffff1673ffffffffffffffffffffffffffffffffffffffff16815260200190815260200160002054011115151561081057600080fd5b6007600083815260200190815260200160002060020154816007600085815260200190815260200160002060040154011115151561084d57600080fd5b806007600084815260200190815260200160002060030154023373ffffffffffffffffffffffffffffffffffffffff163111151561088a57600080fd5b60007fffffffffffffffffffffffffffffffffffffffffffffffffffffffffffffffff905060006001840390505b60008111156108ea576007600082815260200190815260200160002060020154820191508080600190039150506108b8565b506007600084815260200190815260200160002060040154810190506000600190505b8281111515610977573360096000838501815260200190815260200160002060006101000a81548173ffffffffffffffffffffffffffffffffffffffff021916908373ffffffffffffffffffffffffffffffffffffffff160217905550808060010191505061090d565b5081600860003373ffffffffffffffffffffffffffffffffffffffff1673ffffffffffffffffffffffffffffffffffffffff16815260200190815260200160002060008282540192505081905550816007600085815260200190815260200160002060040160008282540192505081905550600460009054906101000a900473ffffffffffffffffffffffffffffffffffffffff1673ffffffffffffffffffffffffffffffffffffffff166108fc60059081150290604051600060405180830381858888f19350505050158015610a52573d6000803e3d6000fd5b50505050565b60065481565b60056000815480929190600101919050555060a06040519081016040528060055481526020018481526020018381526020018281526020016000815250600760006005548152602001908152602001600020600082015181600001556020820151816001019080519060200190610ad6929190610b12565b50604082015181600201556060820151816003015560808201518160040155905050816006600082825401925050819055600681905550505050565b828054600181600116156101000203166002900490600052602060002090601f016020900481019282601f10610b5357805160ff1916838001178555610b81565b82800160010185558215610b81579182015b82811115610b80578251825591602001919060010190610b65565b5b509050610b8e9190610b92565b5090565b610bb491905b80821115610bb0576000816000905550600101610b98565b5090565b9056fea165627a7a72305820c852239535977d9acf88f636155ee9a8af92dd50d4aa2f7d37b0608a234fd7df0029",
  "source": "/*\npragma solidity ^0.5.0;\ncontract Factory {\n  address[] public contracts;\n  function newTicketApp() public returns(address newTicket)\n  {\n    address own = msg.sender;\n    daTicketApp d = new daTicketApp(own);\n    contracts.push(address(d));\n    return address(d);\n  }\n}\n\ncontract daTicketApp {\n  string public eventName;\n  uint public eventDate;\n  uint public startTime;\n  uint public endTime;\n  address public owner;\n\n  constructor(address own)public{\n    owner = own;\n  }\n\n  struct Ticket{ //struct to create each ticket.\n    uint ticketType; // Ticket ID\n    string TicketName;\n    uint maxAmount;\t// max amount of that type avaliable\n    uint TicketCost;\n    uint TicketsSold; //starts at 0, add 1 for each ticket sold\n  }\n\n\n  uint public ticketTypeCount;\t\t//net sum of the ticket types\n  uint public GlobalTicketCount;\t\t//net sum of the count of every avaliable ticket.\n\n\n\n  mapping (uint => Ticket) public tickets;\t\t\t//array of each Ticket struct.\n  mapping(address => uint) public totalTicketsOwned;\t//keeping track of how many tickets each address has\n  mapping(uint =>address) public WhoOwnsThis;\t\t//tracking which tickets are associated with each address.\n\n  function checkBeforeAddTicket(string memory name,uint max,uint cost) public { //checking if the person calling the contract has the right to add a ticket.\n    require(msg.sender == owner);\n    addTicket(name, max, cost);\n  }\n\n  function addTicket( string memory name, uint max, uint cost) private {\t\t//taking the input values and creating a ticket type\n    ticketTypeCount ++; \t\t\t\t\t\t\t//increment the total type count\n    tickets[ticketTypeCount] = Ticket(ticketTypeCount,name,max,cost,0);\t//actually creating the ticket\n    GlobalTicketCount= GlobalTicketCount += max;\t\t//adding the ticket count of the new tickets to TKCount\n  }\n\n  function BuyTicket(uint TicketType, uint quantity) public {\t//Where the actual ticket buying occurs.\n    require(TicketType > 0 && TicketType <= ticketTypeCount);\t//require ticket selected to be valid\n    // TODO: TEST that totalTicketsOwned returns 0 if no tickets associated with buying account \\/\n    require(totalTicketsOwned[msg.sender]+quantity <= 5);\t\t//require buyer has less than 5 total tickets\n    require(tickets[TicketType].TicketsSold + quantity <= tickets[TicketType].maxAmount);  //require tickets to be sold.\n    require(msg.sender.balance > tickets[TicketType].TicketCost*quantity);\t\t// require you not broke AF.\n    int arrayIndex = -1;\n\n    // Loop throught previous Id types to get starting point\n    for(uint i=TicketType-1;i>0;i--){\t//for all of the prevous ticket types\n      arrayIndex = (arrayIndex + int(tickets[i].maxAmount));\n    }\n\n    arrayIndex += int(tickets[TicketType].TicketsSold);\n\n    for(uint j = 1; j<=quantity; j++){\n      WhoOwnsThis[uint(arrayIndex)+j]=msg.sender;\n    }\n    totalTicketsOwned[msg.sender]+=quantity;\n    tickets[TicketType].TicketsSold+=quantity;\n\n  }\n}\n\n\n*/\n\n//THIS DOESNT WORK\n\npragma solidity ^0.5.0;\ncontract Factory{\n  address[] public contracts;\n\n\n  function newTicketApp() public returns(address newTicket)\n  {\n    address payable own = msg.sender;\n    daTicketApp d = new daTicketApp(own);\n    contracts.push(address(d));\n    return address(d);\n\n\n  }\n}\n\ncontract daTicketApp{\n  string public eventName;\n  uint public eventDate;\n  uint public startTime;\n  uint public endTime;\n  address payable public owner;\n\n  constructor(address payable own)public payable{\n    owner = own;\n  }\n\n  struct Ticket{ //struct to create each ticket.\n    uint ticketType; // Ticket ID\n    string TicketName;\n    uint maxAmount;\t// max amount of that type avaliable\n    uint TicketCost;\n    uint TicketsSold; //starts at 0, add 1 for each ticket sold\n  }\n\n\n  uint public ticketTypeCount;\t\t//net sum of the ticket types\n  uint public GlobalTicketCount;\t\t//net sum of the count of every avaliable ticket.\n\n\n\n  mapping (uint => Ticket) public tickets;\t\t\t//array of each Ticket struct.\n  mapping(address => uint) public totalTicketsOwned;\t//keeping track of how many tickets each address has\n  mapping(uint =>address) public WhoOwnsThis;\t\t//tracking which tickets are associated with each address.\n\n  function checkBeforeAddTicket(string memory name,uint max,uint cost) public { //checking if the person calling the contract has the right to add a ticket.\n    require(msg.sender == owner);\n    addTicket(name, max, cost);\n  }\n\n  function addTicket( string memory name, uint max, uint cost) private {\t\t//taking the input values and creating a ticket type\n    ticketTypeCount ++; \t\t\t\t\t\t\t//increment the total type count\n    tickets[ticketTypeCount] = Ticket(ticketTypeCount,name,max,cost,0);\t//actually creating the ticket\n    GlobalTicketCount= GlobalTicketCount += max;\t\t//adding the ticket count of the new tickets to TKCount\n  }\n\n  function BuyTicket(uint TicketType, uint quantity) public payable {\t//Where the actual ticket buying occurs.\n    require(TicketType > 0 && TicketType <= ticketTypeCount);\t//require ticket selected to be valid\n    // TODO: TEST that totalTicketsOwned returns 0 if no tickets associated with buying account \\/\n    require(totalTicketsOwned[msg.sender]+quantity <= 5);\t\t//require buyer has less than 5 total tickets\n    require(tickets[TicketType].TicketsSold + quantity <= tickets[TicketType].maxAmount);  //require tickets to be sold.\n    require(msg.sender.balance > tickets[TicketType].TicketCost*quantity);\t\t// require you not broke AF.\n    int arrayIndex = -1;\n\n    // Loop throught previous Id types to get starting point\n    for(uint i=TicketType-1;i>0;i--){\t//for all of the prevous ticket types\n      arrayIndex = (arrayIndex + int(tickets[i].maxAmount));\n    }\n\n    arrayIndex += int(tickets[TicketType].TicketsSold);\n\n    for(uint j = 1; j<=quantity; j++){\n      WhoOwnsThis[uint(arrayIndex)+j]=msg.sender;\n    }\n    totalTicketsOwned[msg.sender]+=quantity;\n    tickets[TicketType].TicketsSold+=quantity;\n    //require( msg.value==tickets[TicketType].TicketCost*quantity);\n    //owner.transfer(msg.value);\n    //money(owner,tickets[TicketType].TicketCost*quantity);\n    //owner.send(tickets[TicketType].TicketCost*quantity);\n    owner.transfer(5);\n\n\n  }\n\n\n}\n",
  "sourcePath": "/home/dirtbox/PaperCut/contracts/Papercut.sol",
  "compiler": {
    "name": "solc",
    "version": "0.5.0+commit.1d4f565a.Emscripten.clang"
  },
  "schemaVersion": "3.0.6",
  "updatedAt": "2019-04-16T01:12:43.181Z",
  "devdoc": {
    "methods": {}
  },
  "userdoc": {
    "methods": {}
  }
}