{
  "contractName": "Factory",
  "abi": [
    {
      "constant": true,
      "inputs": [],
      "name": "test",
      "outputs": [
        {
          "name": "",
          "type": "address"
        }
      ],
      "payable": false,
      "stateMutability": "view",
      "type": "function",
      "signature": "0xf8a8fd6d"
    },
    {
      "constant": false,
      "inputs": [
        {
          "name": "eventName",
          "type": "string"
        },
        {
          "name": "eventDate",
          "type": "uint256"
        },
        {
          "name": "startTime",
          "type": "uint256"
        },
        {
          "name": "endTime",
          "type": "uint256"
        }
      ],
      "name": "newTicketSale",
      "outputs": [
        {
          "name": "",
          "type": "address"
        }
      ],
      "payable": false,
      "stateMutability": "nonpayable",
      "type": "function",
      "signature": "0x683af05e"
    }
  ],
  "bytecode": "0x608060405234801561001057600080fd5b50611527806100206000396000f3fe60806040526004361061004c576000357c0100000000000000000000000000000000000000000000000000000000900463ffffffff168063683af05e14610051578063f8a8fd6d14610177575b600080fd5b34801561005d57600080fd5b506101356004803603608081101561007457600080fd5b810190808035906020019064010000000081111561009157600080fd5b8201836020820111156100a357600080fd5b803590602001918460018302840111640100000000831117156100c557600080fd5b91908080601f016020809104026020016040519081016040528093929190818152602001838380828437600081840152601f19601f8201169050808301925050505050505091929192908035906020019092919080359060200190929190803590602001909291905050506101ce565b604051808273ffffffffffffffffffffffffffffffffffffffff1673ffffffffffffffffffffffffffffffffffffffff16815260200191505060405180910390f35b34801561018357600080fd5b5061018c610327565b604051808273ffffffffffffffffffffffffffffffffffffffff1673ffffffffffffffffffffffffffffffffffffffff16815260200191505060405180910390f35b600080339050600081878787876101e361034c565b808673ffffffffffffffffffffffffffffffffffffffff1673ffffffffffffffffffffffffffffffffffffffff16815260200180602001858152602001848152602001838152602001828103825286818151815260200191508051906020019080838360005b83811015610264578082015181840152602081019050610249565b50505050905090810190601f1680156102915780820380516001836020036101000a031916815260200191505b509650505050505050604051809103906000f0801580156102b6573d6000803e3d6000fd5b509050806000806101000a81548173ffffffffffffffffffffffffffffffffffffffff021916908373ffffffffffffffffffffffffffffffffffffffff1602179055506000809054906101000a900473ffffffffffffffffffffffffffffffffffffffff1692505050949350505050565b6000809054906101000a900473ffffffffffffffffffffffffffffffffffffffff1681565b60405161119f8061035d8339019056fe60806040526040516200119f3803806200119f833981018060405260a08110156200002957600080fd5b810190808051906020019092919080516401000000008111156200004c57600080fd5b828101905060208101848111156200006357600080fd5b81518560018202830111640100000000821117156200008157600080fd5b505092919060200180519060200190929190805190602001909291908051906020019092919050505084600660006101000a81548173ffffffffffffffffffffffffffffffffffffffff021916908373ffffffffffffffffffffffffffffffffffffffff16021790555083600090805190602001906200010392919062000124565b508260018190555081600281905550806003819055505050505050620001d3565b828054600181600116156101000203166002900490600052602060002090601f016020900481019282601f106200016757805160ff191683800117855562000198565b8280016001018555821562000198579182015b82811115620001975782518255916020019190600101906200017a565b5b509050620001a79190620001ab565b5090565b620001d091905b80821115620001cc576000816000905550600101620001b2565b5090565b90565b610fbc80620001e36000396000f3fe6080604052600436106100c5576000357c0100000000000000000000000000000000000000000000000000000000900463ffffffff168063298ec208146100ca5780633197cbb6146101025780633aeb2b531461012d5780634bfbe5df1461015857806350b447121461018357806365f4ee651461025357806378e979251461032f5780638043c9c01461035a5780638da5cb5b146103ea578063a546295714610441578063abfb8dbc146104a6578063aebd45f614610521578063ee89fb711461054c575b600080fd5b610100600480360360408110156100e057600080fd5b810190808035906020019092919080359060200190929190505050610592565b005b34801561010e57600080fd5b5061011761084d565b6040518082815260200191505060405180910390f35b34801561013957600080fd5b50610142610853565b6040518082815260200191505060405180910390f35b34801561016457600080fd5b5061016d610859565b6040518082815260200191505060405180910390f35b34801561018f57600080fd5b506101bc600480360360208110156101a657600080fd5b810190808035906020019092919050505061085f565b6040518086815260200180602001858152602001848152602001838152602001828103825286818151815260200191508051906020019080838360005b838110156102145780820151818401526020810190506101f9565b50505050905090810190601f1680156102415780820380516001836020036101000a031916815260200191505b50965050505050505060405180910390f35b34801561025f57600080fd5b5061032d6004803603606081101561027657600080fd5b810190808035906020019064010000000081111561029357600080fd5b8201836020820111156102a557600080fd5b803590602001918460018302840111640100000000831117156102c757600080fd5b91908080601f016020809104026020016040519081016040528093929190818152602001838380828437600081840152601f19601f820116905080830192505050505050509192919290803590602001909291908035906020019092919050505061092d565b005b34801561033b57600080fd5b50610344610a02565b6040518082815260200191505060405180910390f35b34801561036657600080fd5b5061036f610a08565b6040518080602001828103825283818151815260200191508051906020019080838360005b838110156103af578082015181840152602081019050610394565b50505050905090810190601f1680156103dc5780820380516001836020036101000a031916815260200191505b509250505060405180910390f35b3480156103f657600080fd5b506103ff610aa6565b604051808273ffffffffffffffffffffffffffffffffffffffff1673ffffffffffffffffffffffffffffffffffffffff16815260200191505060405180910390f35b34801561044d57600080fd5b506104906004803603602081101561046457600080fd5b81019080803573ffffffffffffffffffffffffffffffffffffffff169060200190929190505050610acc565b6040518082815260200191505060405180910390f35b3480156104b257600080fd5b506104df600480360360208110156104c957600080fd5b8101908080359060200190929190505050610ae4565b604051808273ffffffffffffffffffffffffffffffffffffffff1673ffffffffffffffffffffffffffffffffffffffff16815260200191505060405180910390f35b34801561052d57600080fd5b50610536610b17565b6040518082815260200191505060405180910390f35b6105786004803603602081101561056257600080fd5b8101908080359060200190929190505050610b1d565b604051808215151515815260200191505060405180910390f35b600066038d7ea4c6800082600760008681526020019081526020016000206003015402029050600115156105c7848484610b91565b151514151561063e576040517f08c379a000000000000000000000000000000000000000000000000000000000815260040180806020018281038252601c8152602001807f3a20796f7520646f6e2774207175616c69667920746f20627579203a0000000081525060200191505060405180910390fd5b6001151561064b82610b1d565b15151415156106e8576040517f08c379a000000000000000000000000000000000000000000000000000000000815260040180806020018281038252602c8152602001807f3a20666f7220736f6d6520726561736f6e2c207061796d656e74206469646e7481526020017f20776f726b2e2e2e20687568000000000000000000000000000000000000000081525060400191505060405180910390fd5b60007fffffffffffffffffffffffffffffffffffffffffffffffffffffffffffffffff905060006001850390505b600081111561074857600760008281526020019081526020016000206002015482019150808060019003915050610716565b506007600085815260200190815260200160002060040154810190506000600190505b83811115156107d5573360096000838501815260200190815260200160002060006101000a81548173ffffffffffffffffffffffffffffffffffffffff021916908373ffffffffffffffffffffffffffffffffffffffff160217905550808060010191505061076b565b5082600860003373ffffffffffffffffffffffffffffffffffffffff1673ffffffffffffffffffffffffffffffffffffffff1681526020019081526020016000206000828254019250508190555082600760008681526020019081526020016000206004016000828254019250508190555050505050565b60035481565b60045481565b60015481565b6007602052806000526040600020600091509050806000015490806001018054600181600116156101000203166002900480601f0160208091040260200160405190810160405280929190818152602001828054600181600116156101000203166002900480156109115780601f106108e657610100808354040283529160200191610911565b820191906000526020600020905b8154815290600101906020018083116108f457829003601f168201915b5050505050908060020154908060030154908060040154905085565b600660009054906101000a900473ffffffffffffffffffffffffffffffffffffffff1673ffffffffffffffffffffffffffffffffffffffff163373ffffffffffffffffffffffffffffffffffffffff161415156109f2576040517f08c379a00000000000000000000000000000000000000000000000000000000081526004018080602001828103825260128152602001807f3a20596f7520646f6e2774206f776e206d65000000000000000000000000000081525060200191505060405180910390fd5b6109fd838383610e37565b505050565b60025481565b60008054600181600116156101000203166002900480601f016020809104026020016040519081016040528092919081815260200182805460018160011615610100020316600290048015610a9e5780601f10610a7357610100808354040283529160200191610a9e565b820191906000526020600020905b815481529060010190602001808311610a8157829003601f168201915b505050505081565b600660009054906101000a900473ffffffffffffffffffffffffffffffffffffffff1681565b60086020528060005260406000206000915090505481565b60096020528060005260406000206000915054906101000a900473ffffffffffffffffffffffffffffffffffffffff1681565b60055481565b6000600660009054906101000a900473ffffffffffffffffffffffffffffffffffffffff1673ffffffffffffffffffffffffffffffffffffffff166108fc839081150290604051600060405180830381858888f19350505050158015610b87573d6000803e3d6000fd5b5060019050919050565b60008084118015610ba457506004548411155b1515610c18576040517f08c379a000000000000000000000000000000000000000000000000000000000815260040180806020018281038252601e8152602001807f3a2054686973207469636b657420646f6573206e6f742065786973742c2e000081525060200191505060405180910390fd5b600583600860003373ffffffffffffffffffffffffffffffffffffffff1673ffffffffffffffffffffffffffffffffffffffff168152602001908152602001600020540111151515610cd2576040517f08c379a000000000000000000000000000000000000000000000000000000000815260040180806020018281038252601b8152602001807f3a20596f7520616c726561647920676f742035207469636b657473000000000081525060200191505060405180910390fd5b60076000858152602001908152602001600020600201548360076000878152602001908152602001600020600401540111151515610d9e576040517f08c379a00000000000000000000000000000000000000000000000000000000081526004018080602001828103825260338152602001807f3a205468657265206172656e742074686174206d616e79207469636b6574732081526020017f6176616c6961626c652c20736f727279203a280000000000000000000000000081525060400191505060405180910390fd5b813373ffffffffffffffffffffffffffffffffffffffff1631111515610e2c576040517f08c379a00000000000000000000000000000000000000000000000000000000081526004018080602001828103825260178152602001807f3a20596f752063616e74206166666f726420746865736500000000000000000081525060200191505060405180910390fd5b600190509392505050565b60046000815480929190600101919050555060a06040519081016040528060045481526020018481526020018381526020018281526020016000815250600760006004548152602001908152602001600020600082015181600001556020820151816001019080519060200190610eaf929190610eeb565b50604082015181600201556060820151816003015560808201518160040155905050816005600082825401925050819055600581905550505050565b828054600181600116156101000203166002900490600052602060002090601f016020900481019282601f10610f2c57805160ff1916838001178555610f5a565b82800160010185558215610f5a579182015b82811115610f59578251825591602001919060010190610f3e565b5b509050610f679190610f6b565b5090565b610f8d91905b80821115610f89576000816000905550600101610f71565b5090565b9056fea165627a7a72305820cb6425405b499c4929d7550d2f932695d050f18822bb23a462a1b1550d3ad3130029a165627a7a72305820b1a4198694a297e02f5d9342500e75e8bb11caee7272354fb323f67e960f21740029",
  "source": "pragma solidity ^0.5.0;\n\ncontract Factory {\n\n  address public test;\n\n  function newTicketSale(string memory eventName,uint eventDate,uint startTime,uint endTime) public returns(address){\n    address payable own = msg.sender;\n    ticketSale d = new ticketSale(own,eventName,eventDate,startTime,endTime);\n    test = address(d);\n\n    return test;\n  }\n\n  /**^Factory contract to generate event contracts. When the newTicketSale function is called,\n  the address of the caller is set as the owner of the new TicketApp contract. Only they have the\n  ability to add ticket types. WARNING once a ticket type is added, it cannot be removed. CHECK TWICE.\n  */\n\n}\n\ncontract ticketSale {\n\n  string public eventName;\n  uint public eventDate;\n  uint public startTime;\n  uint public endTime;\n  /**event information for the frontend to view. not necessary to contract functionality.\n  */\n  uint public ticketTypeCount;\n  uint public GlobalTicketCount;\n  address payable public owner;\n  /**Global variables keeping track of the owner of the contract, the total number of tickets avaliable,\n  * and the total number of ticket types, going from bottom to top.\n  */\n\n  mapping (uint => Ticket) public tickets;\t\t\t//array of each Ticket struct.\n  mapping(address => uint) public totalTicketsOwned;\t//keeping track of how many tickets each address has\n  mapping(uint =>address) public whoOwnsThis;\t\t//tracking which tickets are associated with each address.\n  /** Going from top to bottom:\n  *  the tickets mapping is an array of each ticket type\n  *  the totalTicketsOwned mapping keeps track of how many tickets each address that bought tickets has\n  *  the whoOwnsThis mapping keeps track of all of the tickets and the addresses associated with them if bought\n  */\n\n  constructor(address payable own,string memory name,uint date,uint start, uint end)public payable{\n    owner = own;\n    eventName = name;\n    eventDate = date;\n    startTime = start;\n    endTime = end;\n  }\n  /** when the contract is initially launched, the owner is set to the initial caller of the function*/\n\n  struct Ticket{ //struct to create each ticket.\n    uint ticketType; // Ticket ID\n    string ticketName;\n    uint maxAmount;\t// max amount of that type avaliable\n    uint ticketCost;\n    uint ticketsSold; //starts at 0, add 1 for each ticket sold\n  }\n  /** The struct that everything was based off of. Going from top to bottom it contains:\n  * ticketType  -- the number of its type where 1 is the first ticket type created, going up from there.\n  * ticketName  -- the String name of the ticket itself\n  * maxAmount   -- the total avaliable tickets of that type\n  * ticketCost  -- the cost of this specific type of ticketCost\n  * ticketsSold -- the total number of tickets of this type that have been sold already\n  */\n\n  function checkBeforeAddTicket(string memory name,uint max,uint cost) public { //checking if the person calling the contract has the right to add a ticket.\n    require(msg.sender == owner,\": You don't own me\");\n    addTicket(name, max, cost);\n  }\n  /** before adding a ticket to the event/occasion, check if the address attempting to\n  *  add a ticket is the owner of the contcostract respective to said event.\n  */\n\n\n  function addTicket( string memory name, uint max, uint cost) private {\n    ticketTypeCount ++;\n    tickets[ticketTypeCount] = Ticket(ticketTypeCount,name,max,cost,0);\n    GlobalTicketCount= GlobalTicketCount += max;\n\n  }\n  /** Once an address is verified as the owner, increment the total count of tickets, create a new ticket,\n  *  populate its values, and add its maxAmount of tickets to the global count of tickets\n  *  remember, cost is in FINNEY 1/1000 of an ether.\n  */\n\n  function checkBeforeBuyTicket(uint TicketType, uint quantity, uint totalCost) view private returns (bool) {\n    require(TicketType > 0 && TicketType <= ticketTypeCount,\": This ticket does not exist,.\");\n    require(totalTicketsOwned[msg.sender]+quantity <= 5,\": You already got 5 tickets\");\n    require(tickets[TicketType].ticketsSold + quantity <= tickets[TicketType].maxAmount,\": There arent that many tickets avaliable, sorry :(\");\n    require(msg.sender.balance > totalCost, \": You cant afford these\");\n    return true;\n  }\n  /**Called by the buy ticket function, this checks the requirements for ticket purchase\n  * going from top to bottom, the requirements are:\n  * the TicketType must be a number that is associated with a valid ticketType\n  * the sum of the tickets being bought, and the tickets already bought from this contract must be >5\n  * the quantity being bought + the number already being sold must be smaller or equal to the number avaliable\n  * you must have funds for this transaction.\n  */\n\n  function PayForThis(uint totalCost)public payable returns(bool){\n    owner.transfer(totalCost);\n    return true;\n  }\n  /** within this function, the owner (the ticket seller) is paid the total cost of the tickets.\n  */\n  function buyTicket(uint TicketType, uint quantity) public payable {\t//Where the actual ticket buying occurs.\n    uint totalCost = tickets[TicketType].ticketCost*quantity * 1 finney;\n    require(checkBeforeBuyTicket(TicketType,quantity,totalCost) == true,\": you don't qualify to buy :\");\t //checking for if you qualify\n    require(PayForThis(totalCost) == true,\": for some reason, payment didnt work... huh\");\n    /** Calculating the total cost, followed by checking the requirements for adding an address\n    *  to the list. SEE functions PayForThis and checkBeforeBuyTicket\n    */\n    int arrayIndex = -1;\n    for(uint i=TicketType-1;i>0;i--){\n      arrayIndex = (arrayIndex + int(tickets[i].maxAmount));\n    }\n    arrayIndex += int(tickets[TicketType].ticketsSold);\n    /** This first for loop moves the arrayIndex to the correct position for adding an address to the\n    *  next avaliable slot within the ticketType's section of the array.\n    * it is required because the numbers and addresses for all of the ticket types are stored on 1 array.\n    */\n    for(uint j = 1; j<=quantity; j++){\n      whoOwnsThis[uint(arrayIndex)+j]=msg.sender;\n    }\n    /** This for loop associates the address of the buyer with the tickets that they bought.\n    */\n    totalTicketsOwned[msg.sender]+=quantity;\n    tickets[TicketType].ticketsSold+=quantity;\n    /** Finally, the global count of the total tickets owned is updated followed by the numbers\n    * of tickets sold in that type.\n    * The remainder of the funding is then refunded to the buyer.\n    */\n  }\n\n}\n",
  "sourcePath": "C:/Users/Taylor/Desktop/Repositories/blockchainProject-master/blockchainProject-master/contracts/Papercut.sol",
  "compiler": {
    "name": "solc",
    "version": "0.5.0+commit.1d4f565a.Emscripten.clang"
  },
  "schemaVersion": "3.0.6",
  "updatedAt": "2019-04-28T04:09:21.757Z",
  "devdoc": {
    "methods": {}
  },
  "userdoc": {
    "methods": {}
  }
}