{
  "contractName": "Papercut",
  "abi": [
    {
      "constant": true,
      "inputs": [],
      "name": "buyerCount",
      "outputs": [
        {
          "name": "",
          "type": "uint256"
        }
      ],
      "payable": false,
      "stateMutability": "view",
      "type": "function",
      "signature": "0x9e0cea05"
    },
    {
      "constant": true,
      "inputs": [
        {
          "name": "",
          "type": "address"
        }
      ],
      "name": "seats_taken",
      "outputs": [
        {
          "name": "",
          "type": "bool"
        }
      ],
      "payable": false,
      "stateMutability": "view",
      "type": "function",
      "signature": "0xbc64cc33"
    },
    {
      "constant": true,
      "inputs": [
        {
          "name": "",
          "type": "uint256"
        }
      ],
      "name": "buyers",
      "outputs": [
        {
          "name": "id",
          "type": "uint256"
        },
        {
          "name": "name",
          "type": "string"
        },
        {
          "name": "buyer_saleCount",
          "type": "uint256"
        }
      ],
      "payable": false,
      "stateMutability": "view",
      "type": "function",
      "signature": "0xf2aa8218"
    },
    {
      "inputs": [],
      "payable": false,
      "stateMutability": "nonpayable",
      "type": "constructor",
      "signature": "constructor"
    },
    {
      "anonymous": false,
      "inputs": [
        {
          "indexed": true,
          "name": "_buyerId",
          "type": "uint256"
        }
      ],
      "name": "soldEvent",
      "type": "event",
      "signature": "0x502bbb2026cfbded42c318256e02a9a474a68233e156a58a2402d249259f41bb"
    },
    {
      "constant": false,
      "inputs": [
        {
          "name": "_buyerId",
          "type": "uint256"
        }
      ],
      "name": "seatPicked",
      "outputs": [],
      "payable": false,
      "stateMutability": "nonpayable",
      "type": "function",
      "signature": "0xf492dbff"
    }
  ],
  "bytecode": "0x608060405234801561001057600080fd5b5061005e6040805190810160405280600681526020017f53656174204100000000000000000000000000000000000000000000000000008152506100fd640100000000026401000000009004565b6100ab6040805190810160405280600681526020017f53656174204200000000000000000000000000000000000000000000000000008152506100fd640100000000026401000000009004565b6100f86040805190810160405280600681526020017f53656174204300000000000000000000000000000000000000000000000000008152506100fd640100000000026401000000009004565b61021d565b6000808154809291906001019190505550606060405190810160405280600054815260200182815260200160008152506002600080548152602001908152602001600020600082015181600001556020820151816001019080519060200190610167929190610178565b506040820151816002015590505050565b828054600181600116156101000203166002900490600052602060002090601f016020900481019282601f106101b957805160ff19168380011785556101e7565b828001600101855582156101e7579182015b828111156101e65782518255916020019190600101906101cb565b5b5090506101f491906101f8565b5090565b61021a91905b808211156102165760008160009055506001016101fe565b5090565b90565b61042f8061022c6000396000f3fe608060405260043610610062576000357c0100000000000000000000000000000000000000000000000000000000900463ffffffff1680639e0cea0514610067578063bc64cc3314610092578063f2aa8218146100fb578063f492dbff146101bd575b600080fd5b34801561007357600080fd5b5061007c6101f8565b6040518082815260200191505060405180910390f35b34801561009e57600080fd5b506100e1600480360360208110156100b557600080fd5b81019080803573ffffffffffffffffffffffffffffffffffffffff1690602001909291905050506101fe565b604051808215151515815260200191505060405180910390f35b34801561010757600080fd5b506101346004803603602081101561011e57600080fd5b810190808035906020019092919050505061021e565b6040518084815260200180602001838152602001828103825284818151815260200191508051906020019080838360005b83811015610180578082015181840152602081019050610165565b50505050905090810190601f1680156101ad5780820380516001836020036101000a031916815260200191505b5094505050505060405180910390f35b3480156101c957600080fd5b506101f6600480360360208110156101e057600080fd5b81019080803590602001909291905050506102e0565b005b60005481565b60016020528060005260406000206000915054906101000a900460ff1681565b6002602052806000526040600020600091509050806000015490806001018054600181600116156101000203166002900480601f0160208091040260200160405190810160405280929190818152602001828054600181600116156101000203166002900480156102d05780601f106102a5576101008083540402835291602001916102d0565b820191906000526020600020905b8154815290600101906020018083116102b357829003601f168201915b5050505050908060020154905083565b600160003373ffffffffffffffffffffffffffffffffffffffff1673ffffffffffffffffffffffffffffffffffffffff16815260200190815260200160002060009054906101000a900460ff1615151561033957600080fd5b60008111801561034b57506000548111155b151561035657600080fd5b60018060003373ffffffffffffffffffffffffffffffffffffffff1673ffffffffffffffffffffffffffffffffffffffff16815260200190815260200160002060006101000a81548160ff0219169083151502179055506002600082815260200190815260200160002060020160008154809291906001019190505550807f502bbb2026cfbded42c318256e02a9a474a68233e156a58a2402d249259f41bb60405160405180910390a25056fea165627a7a7230582062c1a0990cf061689655af69fe3c220c05868176149fbb3c87330122b22d44730029",
  "source": "pragma solidity ^0.5.0;\n\ncontract Papercut {\n  // Model a Buyer\n  struct Buyer {\n    uint id;\n    string name;\n    uint buyer_saleCount;\n  }\n\n  // Store buyer count\n  uint public buyerCount;\n\n  // Store accounts that have seats\n  mapping(address => bool) public seats_taken;\n\n  // Fetch Buyer\n  // Store Buyer\n  mapping(uint => Buyer) public buyers;\n\n  //  sold seat event\n   event soldEvent (\n\n     uint indexed _buyerId\n\n     );\n\n     constructor() public {\n       addBuyer_Seat(\"Seat A\");\n       addBuyer_Seat(\"Seat B\");\n       addBuyer_Seat(\"Seat C\");\n     }\n\n     function addBuyer_Seat(string memory _name) private {\n       buyerCount ++;\n       buyers[buyerCount] = Buyer(buyerCount, _name, 0);\n     }\n\n     function seatPicked (uint _buyerId) public {\n\n       // making sure they have not picked seat before\n       // Dont think we will need this\n       // keeping just for compile reasons\n       require(!seats_taken[msg.sender]);\n\n       // validate buyer\n       require(_buyerId > 0 && _buyerId <= buyerCount);\n\n       // require buyer picked seat\n       seats_taken[msg.sender] = true;\n\n       // update buyer's seat count\n       buyers[_buyerId].buyer_saleCount ++;\n\n       // trigger seat_selction event\n       emit soldEvent(_buyerId);\n     }\n}\n",
  "sourcePath": "/home/dirtbox/PaperCut/contracts/Papercut.sol",
  "compiler": {
    "name": "solc",
    "version": "0.5.0+commit.1d4f565a.Emscripten.clang"
  },
  "schemaVersion": "3.0.6",
  "updatedAt": "2019-04-22T14:04:11.710Z",
  "devdoc": {
    "methods": {}
  },
  "userdoc": {
    "methods": {}
  }
}